:100000000C943C000C9459000C9459000C94590029
:100010000C9459000C9459000C9459000C945900FC
:100020000C9459000C9459000C9459000C945900EC
:100030000C9459000C9459000C9459000C945900DC
:100040000C9459000C9459000C9459000C945900CC
:100050000C9459000C9459000C9459000C945900BC
:100060000C94C5000C945900407924301912027880
:10007000001808034621060E11241FBECFEFD8E05A
:10008000DEBFCDBF11E0A0E0B1E0E0E1F3E002C0EF
:1000900005900D92A031B107D9F721E0A0E1B1E0C0
:1000A00001C01D92A731B207E1F70E9461010C94D3
:1000B00086010C9400008CE284B981E78CBD089520
:1000C0008EBD0DB407FEFDCF8EB508950C94600073
:1000D00084E88093B8008FEF8093BB0084E0809326
:1000E000BC0008958091BC00817008958091BC008F
:1000F00080FDFCCF809100010895FC018091BC003F
:1001000080FDFCCF6093120180818093130180FFFA
:1001100015C01092110188EF8093000185EA809349
:10012000BC000895DF01A80FB91F2C91DC01AD5E62
:10013000BE4F2C9301968617A8F3EBCF90E080E09A
:10014000F9CF8091BC0080FDFCCF1092110188EFA7
:100150008093000185EA8093BC0008952091BC0043
:1001600020FDFCCF2091110120FF08C023E131E0E8
:10017000FC01D9018A2F821B861720F08091110182
:10018000817008958D918193F5CF1F921FB61F92B4
:1001900011242F938F939F93EF93FF938091B90036
:1001A000883309F45DC010F5883169F050F4883067
:1001B000C1F18031B1F18091B9008093000184E0F8
:1001C00025C08832C1F7E091100180911201E81733
:1001D00008F03FC081E08E0F80931001F0E0ED5EEB
:1001E000FE4F80818093BB0085E810C08035E1F030
:1001F000883539F18034F9F620911001809112018F
:100200008150990B281719067CF785EC8093BC0068
:10021000FF91EF919F918F912F911F901FBE1F9083
:10022000189510921001CFCFE091100181E08E0F50
:10023000809310018091BB00F0E0ED5EFE4F808363
:10024000DBCF8091BB00E0911001F0E0ED5EFE4F4E
:1002500080838091110181608093110184E9D6CF60
:1002600085EAD4CF81E091E00895E0ECF0E0958359
:100270008483108288E9818386E082830895909147
:10028000C00095FFFCCF8093C60008950E943F01F7
:1002900090E080E008958091C00087FFFCCF8091BE
:1002A000C60008958FEF84B90895E82FF0E0E8596B
:1002B000FF4FE491E5B9089582E087B981E088B9FC
:1002C00008950F92CDB7DEB719820E945C010E949B
:1002D0005201419A89810E9455013099FECF419B7C
:1002E0000FC041982FEF81EE94E021508040904064
:1002F000E1F700C000008981893020F01982EACF3F
:10030000419AF0CF89818F5F8983E4CFF894FFCF42
:10031000F80000000200000000460100000000009C
:00000001FF
